{
  "_format": "hh-sol-artifact-1",
  "contractName": "MedicalRecords",
  "sourceName": "contracts/MedicalRecords.sol",
  "abi": [
    {
      "anonymous": false,
      "inputs": [
        {
          "indexed": false,
          "internalType": "uint256",
          "name": "recordId",
          "type": "uint256"
        },
        {
          "indexed": false,
          "internalType": "uint256",
          "name": "timestamp",
          "type": "uint256"
        },
        {
          "indexed": false,
          "internalType": "string",
          "name": "name",
          "type": "string"
        },
        {
          "indexed": false,
          "internalType": "uint256",
          "name": "age",
          "type": "uint256"
        },
        {
          "indexed": false,
          "internalType": "string",
          "name": "gender",
          "type": "string"
        },
        {
          "indexed": false,
          "internalType": "string",
          "name": "bloodType",
          "type": "string"
        },
        {
          "indexed": false,
          "internalType": "string",
          "name": "allergies",
          "type": "string"
        },
        {
          "indexed": false,
          "internalType": "string",
          "name": "diagnosis",
          "type": "string"
        },
        {
          "indexed": false,
          "internalType": "string",
          "name": "treatment",
          "type": "string"
        }
      ],
      "name": "MedicalRecords__AddRecord",
      "type": "event"
    },
    {
      "anonymous": false,
      "inputs": [
        {
          "indexed": false,
          "internalType": "uint256",
          "name": "recordId",
          "type": "uint256"
        },
        {
          "indexed": false,
          "internalType": "uint256",
          "name": "timestamp",
          "type": "uint256"
        },
        {
          "indexed": false,
          "internalType": "string",
          "name": "name",
          "type": "string"
        },
        {
          "indexed": false,
          "internalType": "uint256",
          "name": "age",
          "type": "uint256"
        },
        {
          "indexed": false,
          "internalType": "string",
          "name": "gender",
          "type": "string"
        },
        {
          "indexed": false,
          "internalType": "string",
          "name": "bloodType",
          "type": "string"
        },
        {
          "indexed": false,
          "internalType": "string",
          "name": "allergies",
          "type": "string"
        },
        {
          "indexed": false,
          "internalType": "string",
          "name": "diagnosis",
          "type": "string"
        },
        {
          "indexed": false,
          "internalType": "string",
          "name": "treatment",
          "type": "string"
        }
      ],
      "name": "MedicalRecords__DeleteRecord",
      "type": "event"
    },
    {
      "inputs": [
        {
          "internalType": "string",
          "name": "_name",
          "type": "string"
        },
        {
          "internalType": "uint256",
          "name": "_age",
          "type": "uint256"
        },
        {
          "internalType": "string",
          "name": "_gender",
          "type": "string"
        },
        {
          "internalType": "string",
          "name": "_bloodType",
          "type": "string"
        },
        {
          "internalType": "string",
          "name": "_allergies",
          "type": "string"
        },
        {
          "internalType": "string",
          "name": "_diagnosis",
          "type": "string"
        },
        {
          "internalType": "string",
          "name": "_treatment",
          "type": "string"
        }
      ],
      "name": "addRecord",
      "outputs": [],
      "stateMutability": "nonpayable",
      "type": "function"
    },
    {
      "inputs": [
        {
          "internalType": "uint256",
          "name": "_recordId",
          "type": "uint256"
        }
      ],
      "name": "deleteRecord",
      "outputs": [],
      "stateMutability": "nonpayable",
      "type": "function"
    },
    {
      "inputs": [],
      "name": "getAllRecords",
      "outputs": [
        {
          "components": [
            {
              "internalType": "uint256",
              "name": "recordId",
              "type": "uint256"
            },
            {
              "internalType": "uint256",
              "name": "timestamp",
              "type": "uint256"
            },
            {
              "internalType": "string",
              "name": "name",
              "type": "string"
            },
            {
              "internalType": "uint256",
              "name": "age",
              "type": "uint256"
            },
            {
              "internalType": "string",
              "name": "gender",
              "type": "string"
            },
            {
              "internalType": "string",
              "name": "bloodType",
              "type": "string"
            },
            {
              "internalType": "string",
              "name": "allergies",
              "type": "string"
            },
            {
              "internalType": "string",
              "name": "diagnosis",
              "type": "string"
            },
            {
              "internalType": "string",
              "name": "treatment",
              "type": "string"
            }
          ],
          "internalType": "struct MedicalRecords.Record[]",
          "name": "",
          "type": "tuple[]"
        }
      ],
      "stateMutability": "view",
      "type": "function"
    },
    {
      "inputs": [
        {
          "internalType": "uint256",
          "name": "_recordId",
          "type": "uint256"
        }
      ],
      "name": "getRecord",
      "outputs": [
        {
          "internalType": "uint256",
          "name": "",
          "type": "uint256"
        },
        {
          "internalType": "string",
          "name": "",
          "type": "string"
        },
        {
          "internalType": "uint256",
          "name": "",
          "type": "uint256"
        },
        {
          "internalType": "string",
          "name": "",
          "type": "string"
        },
        {
          "internalType": "string",
          "name": "",
          "type": "string"
        },
        {
          "internalType": "string",
          "name": "",
          "type": "string"
        },
        {
          "internalType": "string",
          "name": "",
          "type": "string"
        },
        {
          "internalType": "string",
          "name": "",
          "type": "string"
        }
      ],
      "stateMutability": "view",
      "type": "function"
    },
    {
      "inputs": [
        {
          "internalType": "uint256",
          "name": "",
          "type": "uint256"
        }
      ],
      "name": "isDeleted",
      "outputs": [
        {
          "internalType": "bool",
          "name": "",
          "type": "bool"
        }
      ],
      "stateMutability": "view",
      "type": "function"
    },
    {
      "inputs": [],
      "name": "recordId",
      "outputs": [
        {
          "internalType": "uint256",
          "name": "",
          "type": "uint256"
        }
      ],
      "stateMutability": "view",
      "type": "function"
    }
  ],
  "bytecode": "0x608060405234801561001057600080fd5b506118d2806100206000396000f3fe608060405234801561001057600080fd5b50600436106100625760003560e01c806303e9e60914610067578063061f98111461009e57806333c3f9a4146100ba57806394182c36146100d6578063a7f9fe7214610106578063f7dfe22b14610124575b600080fd5b610081600480360381019061007c9190610e21565b610142565b604051610095989796959493929190610ef6565b60405180910390f35b6100b860048036038101906100b39190610e21565b61054e565b005b6100d460048036038101906100cf91906110d3565b610657565b005b6100f060048036038101906100eb9190610e21565b6107e6565b6040516100fd9190611238565b60405180910390f35b61010e610806565b60405161011b9190611456565b60405180910390f35b61012c610ce2565b6040516101399190611478565b60405180910390f35b6000606060006060806060806060600260008a815260200190815260200160002060009054906101000a900460ff16156101b1576040517f08c379a00000000000000000000000000000000000000000000000000000000081526004016101a890611505565b60405180910390fd5b6000600160008b81526020019081526020016000209050806001015481600201826003015483600401846005018560060186600701876008018680546101f690611554565b80601f016020809104026020016040519081016040528092919081815260200182805461022290611554565b801561026f5780601f106102445761010080835404028352916020019161026f565b820191906000526020600020905b81548152906001019060200180831161025257829003601f168201915b5050505050965084805461028290611554565b80601f01602080910402602001604051908101604052809291908181526020018280546102ae90611554565b80156102fb5780601f106102d0576101008083540402835291602001916102fb565b820191906000526020600020905b8154815290600101906020018083116102de57829003601f168201915b5050505050945083805461030e90611554565b80601f016020809104026020016040519081016040528092919081815260200182805461033a90611554565b80156103875780601f1061035c57610100808354040283529160200191610387565b820191906000526020600020905b81548152906001019060200180831161036a57829003601f168201915b5050505050935082805461039a90611554565b80601f01602080910402602001604051908101604052809291908181526020018280546103c690611554565b80156104135780601f106103e857610100808354040283529160200191610413565b820191906000526020600020905b8154815290600101906020018083116103f657829003601f168201915b5050505050925081805461042690611554565b80601f016020809104026020016040519081016040528092919081815260200182805461045290611554565b801561049f5780601f106104745761010080835404028352916020019161049f565b820191906000526020600020905b81548152906001019060200180831161048257829003601f168201915b505050505091508080546104b290611554565b80601f01602080910402602001604051908101604052809291908181526020018280546104de90611554565b801561052b5780601f106105005761010080835404028352916020019161052b565b820191906000526020600020905b81548152906001019060200180831161050e57829003601f168201915b505050505090509850985098509850985098509850985050919395975091939597565b6002600082815260200190815260200160002060009054906101000a900460ff16156105af576040517f08c379a00000000000000000000000000000000000000000000000000000000081526004016105a6906115d2565b60405180910390fd5b60006001600083815260200190815260200160002090507f9f6d6d42feaf505d16bad36aa62866b87460b7e950ea40c554ef8bbfa8f0e5c6816000015442836002018460030154856004018660050187600601886007018960080160405161061f99989796959493929190611687565b60405180910390a160016002600084815260200190815260200160002060006101000a81548160ff0219169083151502179055505050565b6000808154809291906106699061176d565b91905055506040518061012001604052806000548152602001428152602001888152602001878152602001868152602001858152602001848152602001838152602001828152506001600080548152602001908152602001600020600082015181600001556020820151816001015560408201518160020190805190602001906106f4929190610ce8565b5060608201518160030155608082015181600401908051906020019061071b929190610ce8565b5060a0820151816005019080519060200190610738929190610ce8565b5060c0820151816006019080519060200190610755929190610ce8565b5060e0820151816007019080519060200190610772929190610ce8565b50610100820151816008019080519060200190610790929190610ce8565b509050507f3cd872dcecf0391593d478bf560910c59955e9a59702631641bd52b78cafd5db60005442898989898989896040516107d5999897969594939291906117b6565b60405180910390a150505050505050565b60026020528060005260406000206000915054906101000a900460ff1681565b6060600080600190505b6000548111610860576002600082815260200190815260200160002060009054906101000a900460ff1661084d5781806108499061176d565b9250505b80806108589061176d565b915050610810565b5060008167ffffffffffffffff81111561087d5761087c610fa8565b5b6040519080825280602002602001820160405280156108b657816020015b6108a3610d6e565b81526020019060019003908161089b5790505b509050600080600190505b6000548111610cd8576002600082815260200190815260200160002060009054906101000a900460ff16610cc5576001600082815260200190815260200160002060405180610120016040529081600082015481526020016001820154815260200160028201805461093290611554565b80601f016020809104026020016040519081016040528092919081815260200182805461095e90611554565b80156109ab5780601f10610980576101008083540402835291602001916109ab565b820191906000526020600020905b81548152906001019060200180831161098e57829003601f168201915b50505050508152602001600382015481526020016004820180546109ce90611554565b80601f01602080910402602001604051908101604052809291908181526020018280546109fa90611554565b8015610a475780601f10610a1c57610100808354040283529160200191610a47565b820191906000526020600020905b815481529060010190602001808311610a2a57829003601f168201915b50505050508152602001600582018054610a6090611554565b80601f0160208091040260200160405190810160405280929190818152602001828054610a8c90611554565b8015610ad95780601f10610aae57610100808354040283529160200191610ad9565b820191906000526020600020905b815481529060010190602001808311610abc57829003601f168201915b50505050508152602001600682018054610af290611554565b80601f0160208091040260200160405190810160405280929190818152602001828054610b1e90611554565b8015610b6b5780601f10610b4057610100808354040283529160200191610b6b565b820191906000526020600020905b815481529060010190602001808311610b4e57829003601f168201915b50505050508152602001600782018054610b8490611554565b80601f0160208091040260200160405190810160405280929190818152602001828054610bb090611554565b8015610bfd5780601f10610bd257610100808354040283529160200191610bfd565b820191906000526020600020905b815481529060010190602001808311610be057829003601f168201915b50505050508152602001600882018054610c1690611554565b80601f0160208091040260200160405190810160405280929190818152602001828054610c4290611554565b8015610c8f5780601f10610c6457610100808354040283529160200191610c8f565b820191906000526020600020905b815481529060010190602001808311610c7257829003601f168201915b505050505081525050838381518110610cab57610caa61186d565b5b60200260200101819052508180610cc19061176d565b9250505b8080610cd09061176d565b9150506108c1565b5081935050505090565b60005481565b828054610cf490611554565b90600052602060002090601f016020900481019282610d165760008555610d5d565b82601f10610d2f57805160ff1916838001178555610d5d565b82800160010185558215610d5d579182015b82811115610d5c578251825591602001919060010190610d41565b5b509050610d6a9190610dba565b5090565b6040518061012001604052806000815260200160008152602001606081526020016000815260200160608152602001606081526020016060815260200160608152602001606081525090565b5b80821115610dd3576000816000905550600101610dbb565b5090565b6000604051905090565b600080fd5b600080fd5b6000819050919050565b610dfe81610deb565b8114610e0957600080fd5b50565b600081359050610e1b81610df5565b92915050565b600060208284031215610e3757610e36610de1565b5b6000610e4584828501610e0c565b91505092915050565b610e5781610deb565b82525050565b600081519050919050565b600082825260208201905092915050565b60005b83811015610e97578082015181840152602081019050610e7c565b83811115610ea6576000848401525b50505050565b6000601f19601f8301169050919050565b6000610ec882610e5d565b610ed28185610e68565b9350610ee2818560208601610e79565b610eeb81610eac565b840191505092915050565b600061010082019050610f0c600083018b610e4e565b8181036020830152610f1e818a610ebd565b9050610f2d6040830189610e4e565b8181036060830152610f3f8188610ebd565b90508181036080830152610f538187610ebd565b905081810360a0830152610f678186610ebd565b905081810360c0830152610f7b8185610ebd565b905081810360e0830152610f8f8184610ebd565b90509998505050505050505050565b600080fd5b600080fd5b7f4e487b7100000000000000000000000000000000000000000000000000000000600052604160045260246000fd5b610fe082610eac565b810181811067ffffffffffffffff82111715610fff57610ffe610fa8565b5b80604052505050565b6000611012610dd7565b905061101e8282610fd7565b919050565b600067ffffffffffffffff82111561103e5761103d610fa8565b5b61104782610eac565b9050602081019050919050565b82818337600083830152505050565b600061107661107184611023565b611008565b90508281526020810184848401111561109257611091610fa3565b5b61109d848285611054565b509392505050565b600082601f8301126110ba576110b9610f9e565b5b81356110ca848260208601611063565b91505092915050565b600080600080600080600060e0888a0312156110f2576110f1610de1565b5b600088013567ffffffffffffffff8111156111105761110f610de6565b5b61111c8a828b016110a5565b975050602061112d8a828b01610e0c565b965050604088013567ffffffffffffffff81111561114e5761114d610de6565b5b61115a8a828b016110a5565b955050606088013567ffffffffffffffff81111561117b5761117a610de6565b5b6111878a828b016110a5565b945050608088013567ffffffffffffffff8111156111a8576111a7610de6565b5b6111b48a828b016110a5565b93505060a088013567ffffffffffffffff8111156111d5576111d4610de6565b5b6111e18a828b016110a5565b92505060c088013567ffffffffffffffff81111561120257611201610de6565b5b61120e8a828b016110a5565b91505092959891949750929550565b60008115159050919050565b6112328161121d565b82525050565b600060208201905061124d6000830184611229565b92915050565b600081519050919050565b600082825260208201905092915050565b6000819050602082019050919050565b61128881610deb565b82525050565b600082825260208201905092915050565b60006112aa82610e5d565b6112b4818561128e565b93506112c4818560208601610e79565b6112cd81610eac565b840191505092915050565b6000610120830160008301516112f1600086018261127f565b506020830151611304602086018261127f565b506040830151848203604086015261131c828261129f565b9150506060830151611331606086018261127f565b5060808301518482036080860152611349828261129f565b91505060a083015184820360a0860152611363828261129f565b91505060c083015184820360c086015261137d828261129f565b91505060e083015184820360e0860152611397828261129f565b9150506101008301518482036101008601526113b3828261129f565b9150508091505092915050565b60006113cc83836112d8565b905092915050565b6000602082019050919050565b60006113ec82611253565b6113f6818561125e565b9350836020820285016114088561126f565b8060005b85811015611444578484038952815161142585826113c0565b9450611430836113d4565b925060208a0199505060018101905061140c565b50829750879550505050505092915050565b6000602082019050818103600083015261147081846113e1565b905092915050565b600060208201905061148d6000830184610e4e565b92915050565b7f5265636f7264206e6f7420666f756e64206f7220686173206265656e2064656c60008201527f6574656400000000000000000000000000000000000000000000000000000000602082015250565b60006114ef602483610e68565b91506114fa82611493565b604082019050919050565b6000602082019050818103600083015261151e816114e2565b9050919050565b7f4e487b7100000000000000000000000000000000000000000000000000000000600052602260045260246000fd5b6000600282049050600182168061156c57607f821691505b602082108114156115805761157f611525565b5b50919050565b7f546865207265636f726420697320616c72656164792064656c65746564000000600082015250565b60006115bc601d83610e68565b91506115c782611586565b602082019050919050565b600060208201905081810360008301526115eb816115af565b9050919050565b60008190508160005260206000209050919050565b6000815461161481611554565b61161e8186610e68565b94506001821660008114611639576001811461164b5761167e565b60ff198316865260208601935061167e565b611654856115f2565b60005b8381101561167657815481890152600182019150602081019050611657565b808801955050505b50505092915050565b60006101208201905061169d600083018c610e4e565b6116aa602083018b610e4e565b81810360408301526116bc818a611607565b90506116cb6060830189610e4e565b81810360808301526116dd8188611607565b905081810360a08301526116f18187611607565b905081810360c08301526117058186611607565b905081810360e08301526117198185611607565b905081810361010083015261172e8184611607565b90509a9950505050505050505050565b7f4e487b7100000000000000000000000000000000000000000000000000000000600052601160045260246000fd5b600061177882610deb565b91507fffffffffffffffffffffffffffffffffffffffffffffffffffffffffffffffff8214156117ab576117aa61173e565b5b600182019050919050565b6000610120820190506117cc600083018c610e4e565b6117d9602083018b610e4e565b81810360408301526117eb818a610ebd565b90506117fa6060830189610e4e565b818103608083015261180c8188610ebd565b905081810360a08301526118208187610ebd565b905081810360c08301526118348186610ebd565b905081810360e08301526118488185610ebd565b905081810361010083015261185d8184610ebd565b90509a9950505050505050505050565b7f4e487b7100000000000000000000000000000000000000000000000000000000600052603260045260246000fdfea26469706673582212208fb90bd1b2ff0073e9ca589ab5338a11590edc772bd903658fcfd4ed37037d0364736f6c634300080b0033",
  "linkReferences": {},
  "deployedLinkReferences": {}
}