{
  "_format": "hh-sol-artifact-1",
  "contractName": "MedicalRecords",
  "sourceName": "contracts/MedicalRecords.sol",
  "abi": [
    {
      "anonymous": false,
      "inputs": [
        {
          "indexed": false,
          "internalType": "uint256",
          "name": "recordId",
          "type": "uint256"
        },
        {
          "indexed": false,
          "internalType": "uint256",
          "name": "timestamp",
          "type": "uint256"
        },
        {
          "indexed": false,
          "internalType": "string",
          "name": "name",
          "type": "string"
        },
        {
          "indexed": false,
          "internalType": "uint256",
          "name": "age",
          "type": "uint256"
        },
        {
          "indexed": false,
          "internalType": "string",
          "name": "gender",
          "type": "string"
        },
        {
          "indexed": false,
          "internalType": "string",
          "name": "bloodType",
          "type": "string"
        },
        {
          "indexed": false,
          "internalType": "string",
          "name": "allergies",
          "type": "string"
        },
        {
          "indexed": false,
          "internalType": "string",
          "name": "diagnosis",
          "type": "string"
        },
        {
          "indexed": false,
          "internalType": "string",
          "name": "treatment",
          "type": "string"
        }
      ],
      "name": "MedicalRecords__AddRecord",
      "type": "event"
    },
    {
      "anonymous": false,
      "inputs": [
        {
          "indexed": false,
          "internalType": "uint256",
          "name": "recordId",
          "type": "uint256"
        },
        {
          "indexed": false,
          "internalType": "uint256",
          "name": "timestamp",
          "type": "uint256"
        },
        {
          "indexed": false,
          "internalType": "string",
          "name": "name",
          "type": "string"
        },
        {
          "indexed": false,
          "internalType": "uint256",
          "name": "age",
          "type": "uint256"
        },
        {
          "indexed": false,
          "internalType": "string",
          "name": "gender",
          "type": "string"
        },
        {
          "indexed": false,
          "internalType": "string",
          "name": "bloodType",
          "type": "string"
        },
        {
          "indexed": false,
          "internalType": "string",
          "name": "allergies",
          "type": "string"
        },
        {
          "indexed": false,
          "internalType": "string",
          "name": "diagnosis",
          "type": "string"
        },
        {
          "indexed": false,
          "internalType": "string",
          "name": "treatment",
          "type": "string"
        }
      ],
      "name": "MedicalRecords__DeleteRecord",
      "type": "event"
    },
    {
      "inputs": [
        {
          "internalType": "string",
          "name": "_name",
          "type": "string"
        },
        {
          "internalType": "uint256",
          "name": "_age",
          "type": "uint256"
        },
        {
          "internalType": "string",
          "name": "_gender",
          "type": "string"
        },
        {
          "internalType": "string",
          "name": "_bloodType",
          "type": "string"
        },
        {
          "internalType": "string",
          "name": "_allergies",
          "type": "string"
        },
        {
          "internalType": "string",
          "name": "_diagnosis",
          "type": "string"
        },
        {
          "internalType": "string",
          "name": "_treatment",
          "type": "string"
        }
      ],
      "name": "addRecord",
      "outputs": [],
      "stateMutability": "nonpayable",
      "type": "function"
    },
    {
      "inputs": [
        {
          "internalType": "uint256",
          "name": "_recordId",
          "type": "uint256"
        }
      ],
      "name": "deleteRecord",
      "outputs": [],
      "stateMutability": "nonpayable",
      "type": "function"
    },
    {
      "inputs": [
        {
          "internalType": "uint256",
          "name": "_recordId",
          "type": "uint256"
        }
      ],
      "name": "getAge",
      "outputs": [
        {
          "internalType": "uint256",
          "name": "",
          "type": "uint256"
        }
      ],
      "stateMutability": "view",
      "type": "function"
    },
    {
      "inputs": [],
      "name": "getAllRecords",
      "outputs": [
        {
          "components": [
            {
              "internalType": "uint256",
              "name": "recordId",
              "type": "uint256"
            },
            {
              "internalType": "uint256",
              "name": "timestamp",
              "type": "uint256"
            },
            {
              "internalType": "string",
              "name": "name",
              "type": "string"
            },
            {
              "internalType": "uint256",
              "name": "age",
              "type": "uint256"
            },
            {
              "internalType": "string",
              "name": "gender",
              "type": "string"
            },
            {
              "internalType": "string",
              "name": "bloodType",
              "type": "string"
            },
            {
              "internalType": "string",
              "name": "allergies",
              "type": "string"
            },
            {
              "internalType": "string",
              "name": "diagnosis",
              "type": "string"
            },
            {
              "internalType": "string",
              "name": "treatment",
              "type": "string"
            }
          ],
          "internalType": "struct MedicalRecords.Record[]",
          "name": "",
          "type": "tuple[]"
        }
      ],
      "stateMutability": "view",
      "type": "function"
    },
    {
      "inputs": [
        {
          "internalType": "uint256",
          "name": "_recordId",
          "type": "uint256"
        }
      ],
      "name": "getAllergies",
      "outputs": [
        {
          "internalType": "string",
          "name": "",
          "type": "string"
        }
      ],
      "stateMutability": "view",
      "type": "function"
    },
    {
      "inputs": [
        {
          "internalType": "uint256",
          "name": "_recordId",
          "type": "uint256"
        }
      ],
      "name": "getBloodType",
      "outputs": [
        {
          "internalType": "string",
          "name": "",
          "type": "string"
        }
      ],
      "stateMutability": "view",
      "type": "function"
    },
    {
      "inputs": [
        {
          "internalType": "uint256",
          "name": "_recordId",
          "type": "uint256"
        }
      ],
      "name": "getDeleted",
      "outputs": [
        {
          "internalType": "bool",
          "name": "",
          "type": "bool"
        }
      ],
      "stateMutability": "view",
      "type": "function"
    },
    {
      "inputs": [
        {
          "internalType": "uint256",
          "name": "_recordId",
          "type": "uint256"
        }
      ],
      "name": "getDiagnosis",
      "outputs": [
        {
          "internalType": "string",
          "name": "",
          "type": "string"
        }
      ],
      "stateMutability": "view",
      "type": "function"
    },
    {
      "inputs": [
        {
          "internalType": "uint256",
          "name": "_recordId",
          "type": "uint256"
        }
      ],
      "name": "getGender",
      "outputs": [
        {
          "internalType": "string",
          "name": "",
          "type": "string"
        }
      ],
      "stateMutability": "view",
      "type": "function"
    },
    {
      "inputs": [
        {
          "internalType": "uint256",
          "name": "_recordId",
          "type": "uint256"
        }
      ],
      "name": "getName",
      "outputs": [
        {
          "internalType": "string",
          "name": "",
          "type": "string"
        }
      ],
      "stateMutability": "view",
      "type": "function"
    },
    {
      "inputs": [
        {
          "internalType": "uint256",
          "name": "_recordId",
          "type": "uint256"
        }
      ],
      "name": "getRecord",
      "outputs": [
        {
          "internalType": "uint256",
          "name": "",
          "type": "uint256"
        },
        {
          "internalType": "string",
          "name": "",
          "type": "string"
        },
        {
          "internalType": "uint256",
          "name": "",
          "type": "uint256"
        },
        {
          "internalType": "string",
          "name": "",
          "type": "string"
        },
        {
          "internalType": "string",
          "name": "",
          "type": "string"
        },
        {
          "internalType": "string",
          "name": "",
          "type": "string"
        },
        {
          "internalType": "string",
          "name": "",
          "type": "string"
        },
        {
          "internalType": "string",
          "name": "",
          "type": "string"
        }
      ],
      "stateMutability": "view",
      "type": "function"
    },
    {
      "inputs": [],
      "name": "getRecordId",
      "outputs": [
        {
          "internalType": "uint256",
          "name": "",
          "type": "uint256"
        }
      ],
      "stateMutability": "view",
      "type": "function"
    },
    {
      "inputs": [
        {
          "internalType": "uint256",
          "name": "_recordId",
          "type": "uint256"
        }
      ],
      "name": "getTimeStamp",
      "outputs": [
        {
          "internalType": "uint256",
          "name": "",
          "type": "uint256"
        }
      ],
      "stateMutability": "view",
      "type": "function"
    },
    {
      "inputs": [
        {
          "internalType": "uint256",
          "name": "_recordId",
          "type": "uint256"
        }
      ],
      "name": "getTreatment",
      "outputs": [
        {
          "internalType": "string",
          "name": "",
          "type": "string"
        }
      ],
      "stateMutability": "view",
      "type": "function"
    },
    {
      "inputs": [
        {
          "internalType": "uint256",
          "name": "",
          "type": "uint256"
        }
      ],
      "name": "isDeleted",
      "outputs": [
        {
          "internalType": "bool",
          "name": "",
          "type": "bool"
        }
      ],
      "stateMutability": "view",
      "type": "function"
    },
    {
      "inputs": [],
      "name": "recordId",
      "outputs": [
        {
          "internalType": "uint256",
          "name": "",
          "type": "uint256"
        }
      ],
      "stateMutability": "view",
      "type": "function"
    }
  ],
  "bytecode": "0x608060405234801561001057600080fd5b50611ea7806100206000396000f3fe608060405234801561001057600080fd5b50600436106101005760003560e01c806397f6c84c11610097578063b810793e11610066578063b810793e14610300578063e06d2eb514610330578063f26c5f5f14610360578063f7dfe22b1461039057610100565b806397f6c84c1461026457806399055dda14610294578063a7f9fe72146102b2578063ab596946146102d057610100565b80636747f391116100d35780636747f391146101a45780636b8ff574146101d457806373c440db1461020457806394182c361461023457610100565b806303e9e60914610105578063061f98111461013c5780630e37008a1461015857806333c3f9a414610188575b600080fd5b61011f600480360381019061011a9190611432565b6103ae565b604051610133989796959493929190611507565b60405180910390f35b61015660048036038101906101519190611432565b610759565b005b610172600480360381019061016d9190611432565b610862565b60405161017f91906115af565b60405180910390f35b6101a2600480360381019061019d91906116ff565b610882565b005b6101be60048036038101906101b99190611432565b610a11565b6040516101cb91906115af565b60405180910390f35b6101ee60048036038101906101e99190611432565b610a31565b6040516101fb9190611849565b60405180910390f35b61021e60048036038101906102199190611432565b610ad9565b60405161022b9190611849565b60405180910390f35b61024e60048036038101906102499190611432565b610b81565b60405161025b9190611886565b60405180910390f35b61027e60048036038101906102799190611432565b610ba1565b60405161028b9190611849565b60405180910390f35b61029c610c49565b6040516102a991906115af565b60405180910390f35b6102ba610c52565b6040516102c79190611aa4565b60405180910390f35b6102ea60048036038101906102e59190611432565b6110d1565b6040516102f79190611886565b60405180910390f35b61031a60048036038101906103159190611432565b6110fb565b6040516103279190611849565b60405180910390f35b61034a60048036038101906103459190611432565b6111a3565b6040516103579190611849565b60405180910390f35b61037a60048036038101906103759190611432565b61124b565b6040516103879190611849565b60405180910390f35b6103986112f3565b6040516103a591906115af565b60405180910390f35b60006060600060608060608060606000600160008b815260200190815260200160002090508060010154816002018260030154836004018460050185600601866007018760080186805461040190611af5565b80601f016020809104026020016040519081016040528092919081815260200182805461042d90611af5565b801561047a5780601f1061044f5761010080835404028352916020019161047a565b820191906000526020600020905b81548152906001019060200180831161045d57829003601f168201915b5050505050965084805461048d90611af5565b80601f01602080910402602001604051908101604052809291908181526020018280546104b990611af5565b80156105065780601f106104db57610100808354040283529160200191610506565b820191906000526020600020905b8154815290600101906020018083116104e957829003601f168201915b5050505050945083805461051990611af5565b80601f016020809104026020016040519081016040528092919081815260200182805461054590611af5565b80156105925780601f1061056757610100808354040283529160200191610592565b820191906000526020600020905b81548152906001019060200180831161057557829003601f168201915b505050505093508280546105a590611af5565b80601f01602080910402602001604051908101604052809291908181526020018280546105d190611af5565b801561061e5780601f106105f35761010080835404028352916020019161061e565b820191906000526020600020905b81548152906001019060200180831161060157829003601f168201915b5050505050925081805461063190611af5565b80601f016020809104026020016040519081016040528092919081815260200182805461065d90611af5565b80156106aa5780601f1061067f576101008083540402835291602001916106aa565b820191906000526020600020905b81548152906001019060200180831161068d57829003601f168201915b505050505091508080546106bd90611af5565b80601f01602080910402602001604051908101604052809291908181526020018280546106e990611af5565b80156107365780601f1061070b57610100808354040283529160200191610736565b820191906000526020600020905b81548152906001019060200180831161071957829003601f168201915b505050505090509850985098509850985098509850985050919395975091939597565b6002600082815260200190815260200160002060009054906101000a900460ff16156107ba576040517f08c379a00000000000000000000000000000000000000000000000000000000081526004016107b190611b73565b60405180910390fd5b60006001600083815260200190815260200160002090507f9f6d6d42feaf505d16bad36aa62866b87460b7e950ea40c554ef8bbfa8f0e5c6816000015442836002018460030154856004018660050187600601886007018960080160405161082a99989796959493929190611c28565b60405180910390a160016002600084815260200190815260200160002060006101000a81548160ff0219169083151502179055505050565b600060016000838152602001908152602001600020600301549050919050565b60008081548092919061089490611d0e565b919050555060405180610120016040528060005481526020014281526020018881526020018781526020018681526020018581526020018481526020018381526020018281525060016000805481526020019081526020016000206000820151816000015560208201518160010155604082015181600201908051906020019061091f9291906112f9565b506060820151816003015560808201518160040190805190602001906109469291906112f9565b5060a08201518160050190805190602001906109639291906112f9565b5060c08201518160060190805190602001906109809291906112f9565b5060e082015181600701908051906020019061099d9291906112f9565b506101008201518160080190805190602001906109bb9291906112f9565b509050507f3cd872dcecf0391593d478bf560910c59955e9a59702631641bd52b78cafd5db6000544289898989898989604051610a0099989796959493929190611d57565b60405180910390a150505050505050565b600060016000838152602001908152602001600020600101549050919050565b6060600160008381526020019081526020016000206002018054610a5490611af5565b80601f0160208091040260200160405190810160405280929190818152602001828054610a8090611af5565b8015610acd5780601f10610aa257610100808354040283529160200191610acd565b820191906000526020600020905b815481529060010190602001808311610ab057829003601f168201915b50505050509050919050565b6060600160008381526020019081526020016000206007018054610afc90611af5565b80601f0160208091040260200160405190810160405280929190818152602001828054610b2890611af5565b8015610b755780601f10610b4a57610100808354040283529160200191610b75565b820191906000526020600020905b815481529060010190602001808311610b5857829003601f168201915b50505050509050919050565b60026020528060005260406000206000915054906101000a900460ff1681565b6060600160008381526020019081526020016000206006018054610bc490611af5565b80601f0160208091040260200160405190810160405280929190818152602001828054610bf090611af5565b8015610c3d5780601f10610c1257610100808354040283529160200191610c3d565b820191906000526020600020905b815481529060010190602001808311610c2057829003601f168201915b50505050509050919050565b60008054905090565b60606000805467ffffffffffffffff811115610c7157610c706115d4565b5b604051908082528060200260200182016040528015610caa57816020015b610c9761137f565b815260200190600190039081610c8f5790505b5090506000600190505b60005481116110c9576002600082815260200190815260200160002060009054906101000a900460ff166110b65760016000828152602001908152602001600020604051806101200160405290816000820154815260200160018201548152602001600282018054610d2590611af5565b80601f0160208091040260200160405190810160405280929190818152602001828054610d5190611af5565b8015610d9e5780601f10610d7357610100808354040283529160200191610d9e565b820191906000526020600020905b815481529060010190602001808311610d8157829003601f168201915b5050505050815260200160038201548152602001600482018054610dc190611af5565b80601f0160208091040260200160405190810160405280929190818152602001828054610ded90611af5565b8015610e3a5780601f10610e0f57610100808354040283529160200191610e3a565b820191906000526020600020905b815481529060010190602001808311610e1d57829003601f168201915b50505050508152602001600582018054610e5390611af5565b80601f0160208091040260200160405190810160405280929190818152602001828054610e7f90611af5565b8015610ecc5780601f10610ea157610100808354040283529160200191610ecc565b820191906000526020600020905b815481529060010190602001808311610eaf57829003601f168201915b50505050508152602001600682018054610ee590611af5565b80601f0160208091040260200160405190810160405280929190818152602001828054610f1190611af5565b8015610f5e5780601f10610f3357610100808354040283529160200191610f5e565b820191906000526020600020905b815481529060010190602001808311610f4157829003601f168201915b50505050508152602001600782018054610f7790611af5565b80601f0160208091040260200160405190810160405280929190818152602001828054610fa390611af5565b8015610ff05780601f10610fc557610100808354040283529160200191610ff0565b820191906000526020600020905b815481529060010190602001808311610fd357829003601f168201915b5050505050815260200160088201805461100990611af5565b80601f016020809104026020016040519081016040528092919081815260200182805461103590611af5565b80156110825780601f1061105757610100808354040283529160200191611082565b820191906000526020600020905b81548152906001019060200180831161106557829003601f168201915b505050505081525050826001836110999190611e0e565b815181106110aa576110a9611e42565b5b60200260200101819052505b80806110c190611d0e565b915050610cb4565b508091505090565b60006002600083815260200190815260200160002060009054906101000a900460ff169050919050565b606060016000838152602001908152602001600020600501805461111e90611af5565b80601f016020809104026020016040519081016040528092919081815260200182805461114a90611af5565b80156111975780601f1061116c57610100808354040283529160200191611197565b820191906000526020600020905b81548152906001019060200180831161117a57829003601f168201915b50505050509050919050565b60606001600083815260200190815260200160002060040180546111c690611af5565b80601f01602080910402602001604051908101604052809291908181526020018280546111f290611af5565b801561123f5780601f106112145761010080835404028352916020019161123f565b820191906000526020600020905b81548152906001019060200180831161122257829003601f168201915b50505050509050919050565b606060016000838152602001908152602001600020600801805461126e90611af5565b80601f016020809104026020016040519081016040528092919081815260200182805461129a90611af5565b80156112e75780601f106112bc576101008083540402835291602001916112e7565b820191906000526020600020905b8154815290600101906020018083116112ca57829003601f168201915b50505050509050919050565b60005481565b82805461130590611af5565b90600052602060002090601f016020900481019282611327576000855561136e565b82601f1061134057805160ff191683800117855561136e565b8280016001018555821561136e579182015b8281111561136d578251825591602001919060010190611352565b5b50905061137b91906113cb565b5090565b6040518061012001604052806000815260200160008152602001606081526020016000815260200160608152602001606081526020016060815260200160608152602001606081525090565b5b808211156113e45760008160009055506001016113cc565b5090565b6000604051905090565b600080fd5b600080fd5b6000819050919050565b61140f816113fc565b811461141a57600080fd5b50565b60008135905061142c81611406565b92915050565b600060208284031215611448576114476113f2565b5b60006114568482850161141d565b91505092915050565b611468816113fc565b82525050565b600081519050919050565b600082825260208201905092915050565b60005b838110156114a857808201518184015260208101905061148d565b838111156114b7576000848401525b50505050565b6000601f19601f8301169050919050565b60006114d98261146e565b6114e38185611479565b93506114f381856020860161148a565b6114fc816114bd565b840191505092915050565b60006101008201905061151d600083018b61145f565b818103602083015261152f818a6114ce565b905061153e604083018961145f565b818103606083015261155081886114ce565b9050818103608083015261156481876114ce565b905081810360a083015261157881866114ce565b905081810360c083015261158c81856114ce565b905081810360e08301526115a081846114ce565b90509998505050505050505050565b60006020820190506115c4600083018461145f565b92915050565b600080fd5b600080fd5b7f4e487b7100000000000000000000000000000000000000000000000000000000600052604160045260246000fd5b61160c826114bd565b810181811067ffffffffffffffff8211171561162b5761162a6115d4565b5b80604052505050565b600061163e6113e8565b905061164a8282611603565b919050565b600067ffffffffffffffff82111561166a576116696115d4565b5b611673826114bd565b9050602081019050919050565b82818337600083830152505050565b60006116a261169d8461164f565b611634565b9050828152602081018484840111156116be576116bd6115cf565b5b6116c9848285611680565b509392505050565b600082601f8301126116e6576116e56115ca565b5b81356116f684826020860161168f565b91505092915050565b600080600080600080600060e0888a03121561171e5761171d6113f2565b5b600088013567ffffffffffffffff81111561173c5761173b6113f7565b5b6117488a828b016116d1565b97505060206117598a828b0161141d565b965050604088013567ffffffffffffffff81111561177a576117796113f7565b5b6117868a828b016116d1565b955050606088013567ffffffffffffffff8111156117a7576117a66113f7565b5b6117b38a828b016116d1565b945050608088013567ffffffffffffffff8111156117d4576117d36113f7565b5b6117e08a828b016116d1565b93505060a088013567ffffffffffffffff811115611801576118006113f7565b5b61180d8a828b016116d1565b92505060c088013567ffffffffffffffff81111561182e5761182d6113f7565b5b61183a8a828b016116d1565b91505092959891949750929550565b6000602082019050818103600083015261186381846114ce565b905092915050565b60008115159050919050565b6118808161186b565b82525050565b600060208201905061189b6000830184611877565b92915050565b600081519050919050565b600082825260208201905092915050565b6000819050602082019050919050565b6118d6816113fc565b82525050565b600082825260208201905092915050565b60006118f88261146e565b61190281856118dc565b935061191281856020860161148a565b61191b816114bd565b840191505092915050565b60006101208301600083015161193f60008601826118cd565b50602083015161195260208601826118cd565b506040830151848203604086015261196a82826118ed565b915050606083015161197f60608601826118cd565b506080830151848203608086015261199782826118ed565b91505060a083015184820360a08601526119b182826118ed565b91505060c083015184820360c08601526119cb82826118ed565b91505060e083015184820360e08601526119e582826118ed565b915050610100830151848203610100860152611a0182826118ed565b9150508091505092915050565b6000611a1a8383611926565b905092915050565b6000602082019050919050565b6000611a3a826118a1565b611a4481856118ac565b935083602082028501611a56856118bd565b8060005b85811015611a925784840389528151611a738582611a0e565b9450611a7e83611a22565b925060208a01995050600181019050611a5a565b50829750879550505050505092915050565b60006020820190508181036000830152611abe8184611a2f565b905092915050565b7f4e487b7100000000000000000000000000000000000000000000000000000000600052602260045260246000fd5b60006002820490506001821680611b0d57607f821691505b60208210811415611b2157611b20611ac6565b5b50919050565b7f546865207265636f726420697320616c72656164792064656c65746564000000600082015250565b6000611b5d601d83611479565b9150611b6882611b27565b602082019050919050565b60006020820190508181036000830152611b8c81611b50565b9050919050565b60008190508160005260206000209050919050565b60008154611bb581611af5565b611bbf8186611479565b94506001821660008114611bda5760018114611bec57611c1f565b60ff1983168652602086019350611c1f565b611bf585611b93565b60005b83811015611c1757815481890152600182019150602081019050611bf8565b808801955050505b50505092915050565b600061012082019050611c3e600083018c61145f565b611c4b602083018b61145f565b8181036040830152611c5d818a611ba8565b9050611c6c606083018961145f565b8181036080830152611c7e8188611ba8565b905081810360a0830152611c928187611ba8565b905081810360c0830152611ca68186611ba8565b905081810360e0830152611cba8185611ba8565b9050818103610100830152611ccf8184611ba8565b90509a9950505050505050505050565b7f4e487b7100000000000000000000000000000000000000000000000000000000600052601160045260246000fd5b6000611d19826113fc565b91507fffffffffffffffffffffffffffffffffffffffffffffffffffffffffffffffff821415611d4c57611d4b611cdf565b5b600182019050919050565b600061012082019050611d6d600083018c61145f565b611d7a602083018b61145f565b8181036040830152611d8c818a6114ce565b9050611d9b606083018961145f565b8181036080830152611dad81886114ce565b905081810360a0830152611dc181876114ce565b905081810360c0830152611dd581866114ce565b905081810360e0830152611de981856114ce565b9050818103610100830152611dfe81846114ce565b90509a9950505050505050505050565b6000611e19826113fc565b9150611e24836113fc565b925082821015611e3757611e36611cdf565b5b828203905092915050565b7f4e487b7100000000000000000000000000000000000000000000000000000000600052603260045260246000fdfea2646970667358221220d1e9d52a9e5f5fadbbfe817bfc8e184b8249d937a23c80c41c30c5e43e40f1e264736f6c634300080b0033",
  "linkReferences": {},
  "deployedLinkReferences": {}
}